{
  "contractName": "Election",
  "abi": [
    {
      "inputs": [
        {
          "internalType": "address",
          "name": "tokenAddress",
          "type": "address"
        }
      ],
      "stateMutability": "nonpayable",
      "type": "constructor"
    },
    {
      "anonymous": false,
      "inputs": [
        {
          "indexed": false,
          "internalType": "address",
          "name": "voter",
          "type": "address"
        },
        {
          "indexed": false,
          "internalType": "uint256",
          "name": "candidateId",
          "type": "uint256"
        }
      ],
      "name": "VoteCasted",
      "type": "event"
    },
    {
      "inputs": [],
      "name": "admin",
      "outputs": [
        {
          "internalType": "address",
          "name": "",
          "type": "address"
        }
      ],
      "stateMutability": "view",
      "type": "function",
      "constant": true
    },
    {
      "inputs": [
        {
          "internalType": "uint256",
          "name": "",
          "type": "uint256"
        }
      ],
      "name": "candidates",
      "outputs": [
        {
          "internalType": "uint256",
          "name": "id",
          "type": "uint256"
        },
        {
          "internalType": "string",
          "name": "name",
          "type": "string"
        },
        {
          "internalType": "uint256",
          "name": "voteCount",
          "type": "uint256"
        }
      ],
      "stateMutability": "view",
      "type": "function",
      "constant": true
    },
    {
      "inputs": [],
      "name": "candidatesCount",
      "outputs": [
        {
          "internalType": "uint256",
          "name": "",
          "type": "uint256"
        }
      ],
      "stateMutability": "view",
      "type": "function",
      "constant": true
    },
    {
      "inputs": [
        {
          "internalType": "address",
          "name": "",
          "type": "address"
        }
      ],
      "name": "hasVoted",
      "outputs": [
        {
          "internalType": "bool",
          "name": "",
          "type": "bool"
        }
      ],
      "stateMutability": "view",
      "type": "function",
      "constant": true
    },
    {
      "inputs": [],
      "name": "token",
      "outputs": [
        {
          "internalType": "contract VotingToken",
          "name": "",
          "type": "address"
        }
      ],
      "stateMutability": "view",
      "type": "function",
      "constant": true
    },
    {
      "inputs": [],
      "name": "votingActive",
      "outputs": [
        {
          "internalType": "bool",
          "name": "",
          "type": "bool"
        }
      ],
      "stateMutability": "view",
      "type": "function",
      "constant": true
    },
    {
      "inputs": [
        {
          "internalType": "string",
          "name": "name",
          "type": "string"
        }
      ],
      "name": "addCandidate",
      "outputs": [],
      "stateMutability": "nonpayable",
      "type": "function"
    },
    {
      "inputs": [],
      "name": "startElection",
      "outputs": [],
      "stateMutability": "nonpayable",
      "type": "function"
    },
    {
      "inputs": [],
      "name": "endElection",
      "outputs": [],
      "stateMutability": "nonpayable",
      "type": "function"
    },
    {
      "inputs": [
        {
          "internalType": "uint256",
          "name": "candidateId",
          "type": "uint256"
        }
      ],
      "name": "vote",
      "outputs": [],
      "stateMutability": "nonpayable",
      "type": "function"
    },
    {
      "inputs": [],
      "name": "getResults",
      "outputs": [
        {
          "components": [
            {
              "internalType": "uint256",
              "name": "id",
              "type": "uint256"
            },
            {
              "internalType": "string",
              "name": "name",
              "type": "string"
            },
            {
              "internalType": "uint256",
              "name": "voteCount",
              "type": "uint256"
            }
          ],
          "internalType": "struct Election.Candidate[]",
          "name": "",
          "type": "tuple[]"
        }
      ],
      "stateMutability": "view",
      "type": "function",
      "constant": true
    }
  ],
  "bytecode": "0x60806040523480156200001157600080fd5b50604051620017ed380380620017ed833981810160405281019062000037919062000144565b336000806101000a81548173ffffffffffffffffffffffffffffffffffffffff021916908373ffffffffffffffffffffffffffffffffffffffff16021790555080600160006101000a81548173ffffffffffffffffffffffffffffffffffffffff021916908373ffffffffffffffffffffffffffffffffffffffff1602179055506000600360006101000a81548160ff0219169083151502179055505062000176565b600080fd5b600073ffffffffffffffffffffffffffffffffffffffff82169050919050565b60006200010c82620000df565b9050919050565b6200011e81620000ff565b81146200012a57600080fd5b50565b6000815190506200013e8162000113565b92915050565b6000602082840312156200015d576200015c620000da565b5b60006200016d848285016200012d565b91505092915050565b61166780620001866000396000f3fe608060405234801561001057600080fd5b50600436106100a95760003560e01c8063462e91ec11610071578063462e91ec146101685780634717f97c1461018457806359f78468146101a257806362d73eb8146101ac578063f851a440146101b6578063fc0c546a146101d4576100a9565b80630121b93f146100ae57806309eef43e146100ca5780632d35a8a2146100fa5780633477ee2e14610118578063408e27271461014a575b600080fd5b6100c860048036038101906100c39190610a33565b6101f2565b005b6100e460048036038101906100df9190610abe565b6104bf565b6040516100f19190610b06565b60405180910390f35b6101026104df565b60405161010f9190610b30565b60405180910390f35b610132600480360381019061012d9190610a33565b6104e5565b60405161014193929190610bdb565b60405180910390f35b610152610597565b60405161015f9190610b06565b60405180910390f35b610182600480360381019061017d9190610d4e565b6105aa565b005b61018c6106b3565b6040516101999190610f02565b60405180910390f35b6101aa610828565b005b6101b46108d3565b005b6101be61097e565b6040516101cb9190610f33565b60405180910390f35b6101dc6109a2565b6040516101e99190610fad565b60405180910390f35b600360009054906101000a900460ff16610241576040517f08c379a000000000000000000000000000000000000000000000000000000000815260040161023890611014565b60405180910390fd5b600560003373ffffffffffffffffffffffffffffffffffffffff1673ffffffffffffffffffffffffffffffffffffffff16815260200190815260200160002060009054906101000a900460ff16156102ce576040517f08c379a00000000000000000000000000000000000000000000000000000000081526004016102c590611080565b60405180910390fd5b6000811180156102e057506002548111155b61031f576040517f08c379a0000000000000000000000000000000000000000000000000000000008152600401610316906110ec565b60405180910390fd5b60018060009054906101000a900473ffffffffffffffffffffffffffffffffffffffff1673ffffffffffffffffffffffffffffffffffffffff166370a08231336040518263ffffffff1660e01b815260040161037b9190610f33565b602060405180830381865afa158015610398573d6000803e3d6000fd5b505050506040513d601f19601f820116820180604052508101906103bc9190611121565b10156103fd576040517f08c379a00000000000000000000000000000000000000000000000000000000081526004016103f49061119a565b60405180910390fd5b600160046000838152602001908152602001600020600201600082825461042491906111e9565b925050819055506001600560003373ffffffffffffffffffffffffffffffffffffffff1673ffffffffffffffffffffffffffffffffffffffff16815260200190815260200160002060006101000a81548160ff0219169083151502179055507fd0e6c39f2e086dc49f1524b47725526a56945cd1ff661f37976f1725a1e5698633826040516104b492919061121d565b60405180910390a150565b60056020528060005260406000206000915054906101000a900460ff1681565b60025481565b600460205280600052604060002060009150905080600001549080600101805461050e90611275565b80601f016020809104026020016040519081016040528092919081815260200182805461053a90611275565b80156105875780601f1061055c57610100808354040283529160200191610587565b820191906000526020600020905b81548152906001019060200180831161056a57829003601f168201915b5050505050908060020154905083565b600360009054906101000a900460ff1681565b60008054906101000a900473ffffffffffffffffffffffffffffffffffffffff1673ffffffffffffffffffffffffffffffffffffffff163373ffffffffffffffffffffffffffffffffffffffff1614610638576040517f08c379a000000000000000000000000000000000000000000000000000000000815260040161062f906112f2565b60405180910390fd5b6002600081548092919061064b90611312565b91905055506040518060600160405280600254815260200182815260200160008152506004600060025481526020019081526020016000206000820151816000015560208201518160010190816106a291906114fc565b506040820151816002015590505050565b6060600060025467ffffffffffffffff8111156106d3576106d2610c23565b5b60405190808252806020026020018201604052801561070c57816020015b6106f96109c8565b8152602001906001900390816106f15790505b5090506000600190505b600254811161082057600460008281526020019081526020016000206040518060600160405290816000820154815260200160018201805461075790611275565b80601f016020809104026020016040519081016040528092919081815260200182805461078390611275565b80156107d05780601f106107a5576101008083540402835291602001916107d0565b820191906000526020600020905b8154815290600101906020018083116107b357829003601f168201915b50505050508152602001600282015481525050826001836107f191906115ce565b8151811061080257610801611602565b5b6020026020010181905250808061081890611312565b915050610716565b508091505090565b60008054906101000a900473ffffffffffffffffffffffffffffffffffffffff1673ffffffffffffffffffffffffffffffffffffffff163373ffffffffffffffffffffffffffffffffffffffff16146108b6576040517f08c379a00000000000000000000000000000000000000000000000000000000081526004016108ad906112f2565b60405180910390fd5b6000600360006101000a81548160ff021916908315150217905550565b60008054906101000a900473ffffffffffffffffffffffffffffffffffffffff1673ffffffffffffffffffffffffffffffffffffffff163373ffffffffffffffffffffffffffffffffffffffff1614610961576040517f08c379a0000000000000000000000000000000000000000000000000000000008152600401610958906112f2565b60405180910390fd5b6001600360006101000a81548160ff021916908315150217905550565b60008054906101000a900473ffffffffffffffffffffffffffffffffffffffff1681565b600160009054906101000a900473ffffffffffffffffffffffffffffffffffffffff1681565b60405180606001604052806000815260200160608152602001600081525090565b6000604051905090565b600080fd5b600080fd5b6000819050919050565b610a10816109fd565b8114610a1b57600080fd5b50565b600081359050610a2d81610a07565b92915050565b600060208284031215610a4957610a486109f3565b5b6000610a5784828501610a1e565b91505092915050565b600073ffffffffffffffffffffffffffffffffffffffff82169050919050565b6000610a8b82610a60565b9050919050565b610a9b81610a80565b8114610aa657600080fd5b50565b600081359050610ab881610a92565b92915050565b600060208284031215610ad457610ad36109f3565b5b6000610ae284828501610aa9565b91505092915050565b60008115159050919050565b610b0081610aeb565b82525050565b6000602082019050610b1b6000830184610af7565b92915050565b610b2a816109fd565b82525050565b6000602082019050610b456000830184610b21565b92915050565b600081519050919050565b600082825260208201905092915050565b60005b83811015610b85578082015181840152602081019050610b6a565b60008484015250505050565b6000601f19601f8301169050919050565b6000610bad82610b4b565b610bb78185610b56565b9350610bc7818560208601610b67565b610bd081610b91565b840191505092915050565b6000606082019050610bf06000830186610b21565b8181036020830152610c028185610ba2565b9050610c116040830184610b21565b949350505050565b600080fd5b600080fd5b7f4e487b7100000000000000000000000000000000000000000000000000000000600052604160045260246000fd5b610c5b82610b91565b810181811067ffffffffffffffff82111715610c7a57610c79610c23565b5b80604052505050565b6000610c8d6109e9565b9050610c998282610c52565b919050565b600067ffffffffffffffff821115610cb957610cb8610c23565b5b610cc282610b91565b9050602081019050919050565b82818337600083830152505050565b6000610cf1610cec84610c9e565b610c83565b905082815260208101848484011115610d0d57610d0c610c1e565b5b610d18848285610ccf565b509392505050565b600082601f830112610d3557610d34610c19565b5b8135610d45848260208601610cde565b91505092915050565b600060208284031215610d6457610d636109f3565b5b600082013567ffffffffffffffff811115610d8257610d816109f8565b5b610d8e84828501610d20565b91505092915050565b600081519050919050565b600082825260208201905092915050565b6000819050602082019050919050565b610dcc816109fd565b82525050565b600082825260208201905092915050565b6000610dee82610b4b565b610df88185610dd2565b9350610e08818560208601610b67565b610e1181610b91565b840191505092915050565b6000606083016000830151610e346000860182610dc3565b5060208301518482036020860152610e4c8282610de3565b9150506040830151610e616040860182610dc3565b508091505092915050565b6000610e788383610e1c565b905092915050565b6000602082019050919050565b6000610e9882610d97565b610ea28185610da2565b935083602082028501610eb485610db3565b8060005b85811015610ef05784840389528151610ed18582610e6c565b9450610edc83610e80565b925060208a01995050600181019050610eb8565b50829750879550505050505092915050565b60006020820190508181036000830152610f1c8184610e8d565b905092915050565b610f2d81610a80565b82525050565b6000602082019050610f486000830184610f24565b92915050565b6000819050919050565b6000610f73610f6e610f6984610a60565b610f4e565b610a60565b9050919050565b6000610f8582610f58565b9050919050565b6000610f9782610f7a565b9050919050565b610fa781610f8c565b82525050565b6000602082019050610fc26000830184610f9e565b92915050565b7f456c656374696f6e206e6f742061637469766500000000000000000000000000600082015250565b6000610ffe601383610b56565b915061100982610fc8565b602082019050919050565b6000602082019050818103600083015261102d81610ff1565b9050919050565b7f416c726561647920766f74656400000000000000000000000000000000000000600082015250565b600061106a600d83610b56565b915061107582611034565b602082019050919050565b600060208201905081810360008301526110998161105d565b9050919050565b7f496e76616c69642063616e646964617465000000000000000000000000000000600082015250565b60006110d6601183610b56565b91506110e1826110a0565b602082019050919050565b60006020820190508181036000830152611105816110c9565b9050919050565b60008151905061111b81610a07565b92915050565b600060208284031215611137576111366109f3565b5b60006111458482850161110c565b91505092915050565b7f4e6f20766f74696e6720746f6b656e0000000000000000000000000000000000600082015250565b6000611184600f83610b56565b915061118f8261114e565b602082019050919050565b600060208201905081810360008301526111b381611177565b9050919050565b7f4e487b7100000000000000000000000000000000000000000000000000000000600052601160045260246000fd5b60006111f4826109fd565b91506111ff836109fd565b9250828201905080821115611217576112166111ba565b5b92915050565b60006040820190506112326000830185610f24565b61123f6020830184610b21565b9392505050565b7f4e487b7100000000000000000000000000000000000000000000000000000000600052602260045260246000fd5b6000600282049050600182168061128d57607f821691505b6020821081036112a05761129f611246565b5b50919050565b7f4f6e6c792061646d696e00000000000000000000000000000000000000000000600082015250565b60006112dc600a83610b56565b91506112e7826112a6565b602082019050919050565b6000602082019050818103600083015261130b816112cf565b9050919050565b600061131d826109fd565b91507fffffffffffffffffffffffffffffffffffffffffffffffffffffffffffffffff820361134f5761134e6111ba565b5b600182019050919050565b60008190508160005260206000209050919050565b60006020601f8301049050919050565b600082821b905092915050565b6000600883026113bc7fffffffffffffffffffffffffffffffffffffffffffffffffffffffffffffffff8261137f565b6113c6868361137f565b95508019841693508086168417925050509392505050565b60006113f96113f46113ef846109fd565b610f4e565b6109fd565b9050919050565b6000819050919050565b611413836113de565b61142761141f82611400565b84845461138c565b825550505050565b600090565b61143c61142f565b61144781848461140a565b505050565b5b8181101561146b57611460600082611434565b60018101905061144d565b5050565b601f8211156114b0576114818161135a565b61148a8461136f565b81016020851015611499578190505b6114ad6114a58561136f565b83018261144c565b50505b505050565b600082821c905092915050565b60006114d3600019846008026114b5565b1980831691505092915050565b60006114ec83836114c2565b9150826002028217905092915050565b61150582610b4b565b67ffffffffffffffff81111561151e5761151d610c23565b5b6115288254611275565b61153382828561146f565b600060209050601f8311600181146115665760008415611554578287015190505b61155e85826114e0565b8655506115c6565b601f1984166115748661135a565b60005b8281101561159c57848901518255600182019150602085019450602081019050611577565b868310156115b957848901516115b5601f8916826114c2565b8355505b6001600288020188555050505b505050505050565b60006115d9826109fd565b91506115e4836109fd565b92508282039050818111156115fc576115fb6111ba565b5b92915050565b7f4e487b7100000000000000000000000000000000000000000000000000000000600052603260045260246000fdfea26469706673582212208810933089d77f36d18ac01d6dc9c365904077d4f954a33ed920ba58af23dd9964736f6c63430008140033",
  "immutableReferences": {},
  "source": "// SPDX-License-Identifier: MIT\npragma solidity ^0.8.20;\n\nimport \"@openzeppelin/contracts/utils/cryptography/ECDSA.sol\";\nimport \"./VotingToken.sol\";\n\ncontract Election {\n    using ECDSA for bytes32;\n\n    struct Candidate {\n        uint id;\n        string name;\n        uint voteCount;\n    }\n\n    address public admin;\n    VotingToken public token;\n    uint public candidatesCount;\n    bool public votingActive;\n\n    mapping(uint => Candidate) public candidates;\n    mapping(address => bool) public hasVoted;\n\n    event VoteCasted(address voter, uint candidateId);\n\n    constructor(address tokenAddress) {\n        admin = msg.sender;\n        token = VotingToken(tokenAddress);\n        votingActive = false;\n    }\n\n    modifier onlyAdmin() {\n        require(msg.sender == admin, \"Only admin\");\n        _;\n    }\n\n    modifier electionActive() {\n        require(votingActive, \"Election not active\");\n        _;\n    }\n\n    function addCandidate(string memory name) external onlyAdmin {\n        candidatesCount++;\n        candidates[candidatesCount] = Candidate(candidatesCount, name, 0);\n    }\n\n    function startElection() external onlyAdmin {\n        votingActive = true;\n    }\n\n    function endElection() external onlyAdmin {\n        votingActive = false;\n    }\n\n    function vote(uint candidateId) external electionActive {\n        require(!hasVoted[msg.sender], \"Already voted\");\n        require(candidateId > 0 && candidateId <= candidatesCount, \"Invalid candidate\");\n        require(token.balanceOf(msg.sender) >= 1, \"No voting token\");\n\n        candidates[candidateId].voteCount += 1;\n        hasVoted[msg.sender] = true;\n\n        emit VoteCasted(msg.sender, candidateId);\n    }\n\n    function getResults() external view returns (Candidate[] memory) {\n        Candidate[] memory results = new Candidate[](candidatesCount);\n        for (uint i = 1; i <= candidatesCount; i++) {\n            results[i - 1] = candidates[i];\n        }\n        return results;\n    }\n}\n",
  "sourcePath": "/home/louis/truffle-projects/Voting/contracts/Election.sol",
  "compiler": {
    "name": "solc",
    "version": "0.8.20+commit.a1b79de6.Emscripten.clang"
  },
  "schemaVersion": "3.4.16",
  "updatedAt": "2026-01-27T14:13:36.494Z",
  "networkType": "ethereum",
  "devdoc": {
    "kind": "dev",
    "methods": {},
    "version": 1
  },
  "userdoc": {
    "kind": "user",
    "methods": {},
    "version": 1
  }
}